{
  "_format": "hh-sol-artifact-1",
  "contractName": "IndieProjectFunding",
  "sourceName": "contracts/IndieProjectFunding.sol",
  "abi": [
    {
      "inputs": [
        {
          "internalType": "uint256",
          "name": "projectIndex",
          "type": "uint256"
        }
      ],
      "name": "contribute",
      "outputs": [],
      "stateMutability": "payable",
      "type": "function"
    },
    {
      "inputs": [
        {
          "internalType": "address",
          "name": "_teamAccount",
          "type": "address"
        },
        {
          "internalType": "address",
          "name": "_creator",
          "type": "address"
        }
      ],
      "name": "createProject",
      "outputs": [],
      "stateMutability": "nonpayable",
      "type": "function"
    },
    {
      "inputs": [
        {
          "internalType": "uint256",
          "name": "projectIndex",
          "type": "uint256"
        },
        {
          "internalType": "uint256",
          "name": "proposalIndex",
          "type": "uint256"
        }
      ],
      "name": "executeProposal",
      "outputs": [],
      "stateMutability": "nonpayable",
      "type": "function"
    },
    {
      "inputs": [
        {
          "internalType": "uint256",
          "name": "projectIndex",
          "type": "uint256"
        }
      ],
      "name": "getProject",
      "outputs": [
        {
          "internalType": "uint256",
          "name": "totalGT",
          "type": "uint256"
        },
        {
          "internalType": "uint256",
          "name": "teamEthBalance",
          "type": "uint256"
        },
        {
          "internalType": "uint256",
          "name": "ethBalance",
          "type": "uint256"
        },
        {
          "internalType": "uint256",
          "name": "GTBalance",
          "type": "uint256"
        },
        {
          "internalType": "address",
          "name": "creator",
          "type": "address"
        }
      ],
      "stateMutability": "view",
      "type": "function"
    },
    {
      "inputs": [],
      "name": "projectCount",
      "outputs": [
        {
          "internalType": "uint256",
          "name": "",
          "type": "uint256"
        }
      ],
      "stateMutability": "view",
      "type": "function"
    },
    {
      "inputs": [
        {
          "internalType": "uint256",
          "name": "projectIndex",
          "type": "uint256"
        },
        {
          "internalType": "string",
          "name": "proposalTitle",
          "type": "string"
        },
        {
          "internalType": "uint256",
          "name": "_amount",
          "type": "uint256"
        }
      ],
      "name": "propose",
      "outputs": [],
      "stateMutability": "nonpayable",
      "type": "function"
    },
    {
      "inputs": [
        {
          "internalType": "uint256",
          "name": "projectIndex",
          "type": "uint256"
        },
        {
          "internalType": "uint256",
          "name": "_requiredEth",
          "type": "uint256"
        }
      ],
      "name": "startFunding",
      "outputs": [],
      "stateMutability": "nonpayable",
      "type": "function"
    },
    {
      "inputs": [
        {
          "internalType": "uint256",
          "name": "projectIndex",
          "type": "uint256"
        },
        {
          "internalType": "uint256",
          "name": "proposalIndex",
          "type": "uint256"
        },
        {
          "internalType": "bool",
          "name": "approve",
          "type": "bool"
        }
      ],
      "name": "vote",
      "outputs": [],
      "stateMutability": "nonpayable",
      "type": "function"
    }
  ],
  "bytecode": "0x608060405234801561001057600080fd5b506114ec806100206000396000f3fe60806040526004361061007b5760003560e01c8063775c46cd1161004e578063775c46cd14610126578063a3cd476a1461014f578063c1cbbca714610178578063f0f3f2c8146101945761007b565b80631ab767121461008057806336fbad26146100a957806359f75245146100d45780636a18ff7a146100fd575b600080fd5b34801561008c57600080fd5b506100a760048036038101906100a291906109f0565b6101d5565b005b3480156100b557600080fd5b506100be610328565b6040516100cb9190610a3f565b60405180910390f35b3480156100e057600080fd5b506100fb60048036038101906100f69190610ab8565b61032e565b005b34801561010957600080fd5b50610124600480360381019061011f9190610b30565b6103d9565b005b34801561013257600080fd5b5061014d600480360381019061014891906109f0565b610655565b005b34801561015b57600080fd5b5061017660048036038101906101719190610cc9565b610698565b005b610192600480360381019061018d9190610d38565b6107e7565b005b3480156101a057600080fd5b506101bb60048036038101906101b69190610d38565b610927565b6040516101cc959493929190610d74565b60405180910390f35b60008060008481526020019081526020016000209050600081600101600601600084815260200190815260200160002090508060040160009054906101000a900460ff1615610259576040517f08c379a000000000000000000000000000000000000000000000000000000000815260040161025090610e4a565b60405180910390fd5b806003015481600201541115610305578160010160010160000154816001015411156102ba576040517f08c379a00000000000000000000000000000000000000000000000000000000081526004016102b190610edc565b60405180910390fd5b80600101548260010160000160000160008282546102d89190610f2b565b9250508190555080600101548260010160010160000160008282546102fd9190610f5f565b925050819055505b60018160040160006101000a81548160ff02191690831515021790555050505050565b60015481565b6001600081548092919061034190610f93565b919050555060008060006001548152602001908152602001600020600101905060008160000160000181905550818160040160006101000a81548173ffffffffffffffffffffffffffffffffffffffff021916908373ffffffffffffffffffffffffffffffffffffffff1602179055506000806000600154815260200190815260200160002090506000816000018190555050505050565b600080600085815260200190815260200160002090506000816001016006016000858152602001908152602001600020905060008260010160030160003373ffffffffffffffffffffffffffffffffffffffff1673ffffffffffffffffffffffffffffffffffffffff1681526020019081526020016000206000015411610495576040517f08c379a000000000000000000000000000000000000000000000000000000000815260040161048c90611027565b60405180910390fd5b8060050160003373ffffffffffffffffffffffffffffffffffffffff1673ffffffffffffffffffffffffffffffffffffffff16815260200190815260200160002060009054906101000a900460ff1615610524576040517f08c379a000000000000000000000000000000000000000000000000000000000815260040161051b90611093565b60405180910390fd5b8215610591578160010160030160003373ffffffffffffffffffffffffffffffffffffffff1673ffffffffffffffffffffffffffffffffffffffff168152602001908152602001600020600001548160020160008282546105859190610f2b565b925050819055506105f4565b8160010160030160003373ffffffffffffffffffffffffffffffffffffffff1673ffffffffffffffffffffffffffffffffffffffff168152602001908152602001600020600001548160030160008282546105ec9190610f2b565b925050819055505b60018160050160003373ffffffffffffffffffffffffffffffffffffffff1673ffffffffffffffffffffffffffffffffffffffff16815260200190815260200160002060006101000a81548160ff0219169083151502179055505050505050565b60008060008481526020019081526020016000209050600a8261067891906110b3565b816000018190555080600001548160010160010160010181905550505050565b600080600085815260200190815260200160002090508060010160040160009054906101000a900473ffffffffffffffffffffffffffffffffffffffff1673ffffffffffffffffffffffffffffffffffffffff163373ffffffffffffffffffffffffffffffffffffffff1614610743576040517f08c379a000000000000000000000000000000000000000000000000000000000815260040161073a90611141565b60405180910390fd5b600081600101600501600081548092919061075d90610f93565b91905055905083826001016006016000838152602001908152602001600020600001908161078b9190611378565b508282600101600601600083815260200190815260200160002060010181905550600082600101600601600083815260200190815260200160002060040160006101000a81548160ff0219169083151502179055505050505050565b6000806000838152602001908152602001600020905060003411610840576040517f08c379a000000000000000000000000000000000000000000000000000000000815260040161083790611496565b60405180910390fd5b348160010160030160003373ffffffffffffffffffffffffffffffffffffffff1673ffffffffffffffffffffffffffffffffffffffff16815260200190815260200160002060010160008282546108979190610f2b565b925050819055506000349050808260010160030160003373ffffffffffffffffffffffffffffffffffffffff1673ffffffffffffffffffffffffffffffffffffffff16815260200190815260200160002060000160008282546108fa9190610f2b565b925050819055503482600101600101600001600082825461091b9190610f2b565b92505081905550505050565b600080600080600080600080888152602001908152602001600020905080600001548160010160000160000154826001016001016000015483600101600101600101548460010160040160009054906101000a900473ffffffffffffffffffffffffffffffffffffffff16955095509550955095505091939590929450565b6000604051905090565b600080fd5b600080fd5b6000819050919050565b6109cd816109ba565b81146109d857600080fd5b50565b6000813590506109ea816109c4565b92915050565b60008060408385031215610a0757610a066109b0565b5b6000610a15858286016109db565b9250506020610a26858286016109db565b9150509250929050565b610a39816109ba565b82525050565b6000602082019050610a546000830184610a30565b92915050565b600073ffffffffffffffffffffffffffffffffffffffff82169050919050565b6000610a8582610a5a565b9050919050565b610a9581610a7a565b8114610aa057600080fd5b50565b600081359050610ab281610a8c565b92915050565b60008060408385031215610acf57610ace6109b0565b5b6000610add85828601610aa3565b9250506020610aee85828601610aa3565b9150509250929050565b60008115159050919050565b610b0d81610af8565b8114610b1857600080fd5b50565b600081359050610b2a81610b04565b92915050565b600080600060608486031215610b4957610b486109b0565b5b6000610b57868287016109db565b9350506020610b68868287016109db565b9250506040610b7986828701610b1b565b9150509250925092565b600080fd5b600080fd5b6000601f19601f8301169050919050565b7f4e487b7100000000000000000000000000000000000000000000000000000000600052604160045260246000fd5b610bd682610b8d565b810181811067ffffffffffffffff82111715610bf557610bf4610b9e565b5b80604052505050565b6000610c086109a6565b9050610c148282610bcd565b919050565b600067ffffffffffffffff821115610c3457610c33610b9e565b5b610c3d82610b8d565b9050602081019050919050565b82818337600083830152505050565b6000610c6c610c6784610c19565b610bfe565b905082815260208101848484011115610c8857610c87610b88565b5b610c93848285610c4a565b509392505050565b600082601f830112610cb057610caf610b83565b5b8135610cc0848260208601610c59565b91505092915050565b600080600060608486031215610ce257610ce16109b0565b5b6000610cf0868287016109db565b935050602084013567ffffffffffffffff811115610d1157610d106109b5565b5b610d1d86828701610c9b565b9250506040610d2e868287016109db565b9150509250925092565b600060208284031215610d4e57610d4d6109b0565b5b6000610d5c848285016109db565b91505092915050565b610d6e81610a7a565b82525050565b600060a082019050610d896000830188610a30565b610d966020830187610a30565b610da36040830186610a30565b610db06060830185610a30565b610dbd6080830184610d65565b9695505050505050565b600082825260208201905092915050565b7f50726f706f73616c2068617320616c7265616479206265656e2065786563757460008201527f6564000000000000000000000000000000000000000000000000000000000000602082015250565b6000610e34602283610dc7565b9150610e3f82610dd8565b604082019050919050565b60006020820190508181036000830152610e6381610e27565b9050919050565b7f4e6f7420656e6f7567682066756e647320696e20676f7665726e616e6365207660008201527f61756c7400000000000000000000000000000000000000000000000000000000602082015250565b6000610ec6602483610dc7565b9150610ed182610e6a565b604082019050919050565b60006020820190508181036000830152610ef581610eb9565b9050919050565b7f4e487b7100000000000000000000000000000000000000000000000000000000600052601160045260246000fd5b6000610f36826109ba565b9150610f41836109ba565b9250828201905080821115610f5957610f58610efc565b5b92915050565b6000610f6a826109ba565b9150610f75836109ba565b9250828203905081811115610f8d57610f8c610efc565b5b92915050565b6000610f9e826109ba565b91507fffffffffffffffffffffffffffffffffffffffffffffffffffffffffffffffff8203610fd057610fcf610efc565b5b600182019050919050565b7f596f7520617265206e6f74206120737570706f72746572000000000000000000600082015250565b6000611011601783610dc7565b915061101c82610fdb565b602082019050919050565b6000602082019050818103600083015261104081611004565b9050919050565b7f596f75206861766520616c726561647920766f74656400000000000000000000600082015250565b600061107d601683610dc7565b915061108882611047565b602082019050919050565b600060208201905081810360008301526110ac81611070565b9050919050565b60006110be826109ba565b91506110c9836109ba565b92508282026110d7816109ba565b915082820484148315176110ee576110ed610efc565b5b5092915050565b7f4f6e6c79207468652063726561746f722063616e2070726f706f736500000000600082015250565b600061112b601c83610dc7565b9150611136826110f5565b602082019050919050565b6000602082019050818103600083015261115a8161111e565b9050919050565b600081519050919050565b7f4e487b7100000000000000000000000000000000000000000000000000000000600052602260045260246000fd5b600060028204905060018216806111b357607f821691505b6020821081036111c6576111c561116c565b5b50919050565b60008190508160005260206000209050919050565b60006020601f8301049050919050565b600082821b905092915050565b60006008830261122e7fffffffffffffffffffffffffffffffffffffffffffffffffffffffffffffffff826111f1565b61123886836111f1565b95508019841693508086168417925050509392505050565b6000819050919050565b600061127561127061126b846109ba565b611250565b6109ba565b9050919050565b6000819050919050565b61128f8361125a565b6112a361129b8261127c565b8484546111fe565b825550505050565b600090565b6112b86112ab565b6112c3818484611286565b505050565b5b818110156112e7576112dc6000826112b0565b6001810190506112c9565b5050565b601f82111561132c576112fd816111cc565b611306846111e1565b81016020851015611315578190505b611329611321856111e1565b8301826112c8565b50505b505050565b600082821c905092915050565b600061134f60001984600802611331565b1980831691505092915050565b6000611368838361133e565b9150826002028217905092915050565b61138182611161565b67ffffffffffffffff81111561139a57611399610b9e565b5b6113a4825461119b565b6113af8282856112eb565b600060209050601f8311600181146113e257600084156113d0578287015190505b6113da858261135c565b865550611442565b601f1984166113f0866111cc565b60005b82811015611418578489015182556001820191506020850194506020810190506113f3565b868310156114355784890151611431601f89168261133e565b8355505b6001600288020188555050505b505050505050565b7f596f75206d7573742073656e6420736f6d652045746865720000000000000000600082015250565b6000611480601883610dc7565b915061148b8261144a565b602082019050919050565b600060208201905081810360008301526114af81611473565b905091905056fea2646970667358221220b65689d6bbee7bded432d4fff827fbe2811f75cc892a1a0742f465da1cb5126f64736f6c63430008180033",
  "linkReferences": {},
  "deployedLinkReferences": {}
}